:020000040020DA
:100000009C4A002075092100590921006509210039
:100010006D0921006D0921006D092100000000001B
:100020000000000000000000000000006D09210039
:100030006D092100000000006D0921006D092100FB
:100040006D0921006D0921006D0921006D09210054
:10005000000000006D0921006D0921006D092100DB
:100060006D092100000000000000000000000000F9
:1000700000000000000000006D09210000000000E9
:1000800000000000000000006D0921006D09210042
:100090006D0921006D0921006D0921006D09210004
:1000A0006D0921006D0921006D0921006D092100F4
:1000B0006D0921006D0921006D0921006D092100E4
:1000C0006D0921006D0921006D0921006D092100D4
:1000D0006D09210000000000000000000000000089
:1000E0000000000000000000000000000000000010
:1000F0006D092100000000006D0921006D0921003B
:1001000000000000000000000000000000000000EF
:1001100000000000000000000000000000000000DF
:1001200000000000000000000000000000000000CF
:1001300000000000000000000000000000000000BF
:1001400000000000000000000000000000000000AF
:10015000000000000000000000000000000000009F
:10016000000000000000000000000000000000008F
:10017000000000000000000000000000000000007F
:10018000000000000000000000000000000000006F
:10019000000000000000000000000000000000005F
:1001A000000000000000000000000000000000004F
:1001B000000000000000000000000000000000003F
:1001C000000000000000000000000000000000002F
:1001D000000000000000000000000000000000001F
:1001E000000000000000000000000000000000000F
:1001F00000000000000000000000000000000000FF
:1002000000000000000000000000000000000000EE
:1002100000000000000000000000000000000000DE
:1002200000000000000000000000000000000000CE
:1002300000000000000000000000000000000000BE
:1002400000000000000000000000000000000000AE
:10025000000000000000000000000000000000009E
:10026000000000000000000000000000000000008E
:100270006D0921006D0921006D0921006D09210022
:100280006D0921006D0921006D09210080B500AFC5
:100290000EF042FE054B5B6998470DF02DFA00F019
:1002A00007F80DF03BFA0023184680BD086C2100CA
:1002B00080B500AF0DF0B8FA0AF068FE0BF066F8F2
:1002C0000BF014FB0EF064F902F048FA00F026F887
:1002D000114B1B68984704F055F804F0C1FD02F07B
:1002E000A7FC07F0E5FB06F059F907F0B1FC08F0B0
:1002F000FBFA08F06DFB08F0AFFC09F087FC0AF090
:10030000B5FC09F07BF80CF007FC01203521002238
:1003100000230DF017FC80BD7C5D210098B500AF77
:10032000244800214FF4B27215F00AFC2248002143
:10033000102215F005FC1F4B142283F83E211D4BA3
:10034000012283F85D211B4B002283F85E21194BAB
:100350004FF4F672A3F86221164B184A03F5A07405
:1003600013460FCB84E80F000AF042FE0346002B31
:1003700003D0012002F00CF802E0002002F008F89F
:1003800002F05EF80E4B00229A710FF031FE0D481C
:100390000FF090FD0C480FF097FD0C480FF09EFDFC
:1003A0000B480FF0A9FD034BB3F8623118460FF06C
:1003B000D7FD98BDB44A0020284C0020DC5C210009
:1003C000184C002081042000E5042000F9052000DD
:1003D000C106200080B584B000AF786012F06EFBDB
:1003E000264B1A787B681B789A4204D012F05AFB8D
:1003F0004FF0FF333EE00023FB60204BB3F80130A9
:100400009AB27B68B3F801309BB29A420CD112F0D9
:1004100049FB1A4BB3F803309BB21A467B68B3F81A
:1004200003309BB2D31A25E0144BB3F801309BB2D2
:100430001A467B68B3F801309BB2D31A012B13D153
:100440000E4BB3F803309BB2FB607B68B3F803300C
:100450009BB21A46FB689B1A03F57F43FF33FB6090
:10046000FB680133FB6002E04FF0FF33FB6012F0EA
:1004700019FBFB6818461037BD4680BDB44A002002
:1004800080B500AF154BB3F8623118460FF07AFD16
:10049000124B1B7C83F00103DBB2002B15D00AF05A
:1004A000A7FD0346002B0DD0012001F071FF01F0E4
:1004B000FDFC01F029FE04F041FB03461A46074B00
:1004C0001A8104E000F0A2F901E000F021FD044BE4
:1004D0001B680133024A136080BD00BFB44A00208C
:1004E000284C002080B500AF414B93F82031043BED
:1004F000142B69D801A252F823F000BF5105200047
:10050000570520005D0520006305200069052000D7
:100510006F052000750520007B0520008105200067
:1005200087052000C90520008D05200093052000C7
:10053000990520009F052000A5052000AB0520009F
:10054000B1052000B7052000BD052000C30520002F
:1005500000F008FE45E000F05BFE42E000F06AFEBD
:100560003FE000F079FE3CE000F0A2FE39E000F050
:10057000FFFE36E000F02CFF33E000F03BFF30E000
:1005800000F04AFF2DE000F08DFF2AE001F0ACF80A
:1005900027E001F0D9F824E001F0E8F821E001F0CB
:1005A000F7F81EE001F018F91BE001F08FFA18E0EF
:1005B00001F068FB15E001F077FB12E001F086FB2B
:1005C0000FE001F0AFFB0CE0094B93F820319AB239
:1005D000074BDB8809201F210DF0D2FA02F002F848
:1005E00000BF044B5B680133024A536080BD00BF0B
:1005F000B44A0020284C002080B582B000AF78605B
:100600002D4B1B7C83F00103DBB2002B03D07868F9
:1006100000F070F947E0284B93F82031073B102B8E
:1006200034D801A252F823F06D0620008D06200078
:100630008D0620008D06200075062000750620001E
:100640008D0620008D0620008D0620008D062000DE
:100650007D0620007D0620008D0620008D062000EE
:100660008D0620008D06200085062000786800F0A9
:1006700005FE18E0786800F0FBFE14E0786801F0F1
:100680008DF810E0786801F033FB0CE00A4B93F82A
:1006900020319AB2084BDB88092020210DF070FA36
:1006A00001F0A0FF00BF054B9B680133034A936034
:1006B0000837BD4680BD00BFB44A0020284C00204A
:1006C00080B582B000AF78602D4B1B7C83F00103B6
:1006D000DBB2002B03D0786800F028F947E0284B04
:1006E00093F82031083B102B34D801A252F823F0A4
:1006F000350720005507200055072000550720002A
:10070000550720003D072000550720005507200011
:1007100055072000550720005507200045072000F9
:1007200055072000550720005507200055072000D9
:100730004D072000786800F0CDFD18E0786800F0E3
:10074000B7FE14E0786801F059F810E0786801F01D
:10075000FBFA0CE00A4B93F820319AB2084BDB8885
:10076000092021210DF00CFA01F03CFF00BF054BE0
:10077000DB680133034AD3600837BD4680BD00BF44
:10078000B44A0020284C002080B582B000AF0D4B49
:100790001B783B700B4BB3F801309BB2A7F80130CC
:1007A000084BB3F803309BB2A7F803303B46042054
:1007B000194605220DF092F8012318460837BD4668
:1007C00080BD00BFB44A002080B582B000AF0023D6
:1007D000FB71074B1B7CFB71FB1D0020194601229E
:1007E0000DF07CF8012318460837BD4680BD00BFD8
:1007F000B44A002080B500AF052003490F220DF058
:100800006DF80123184680BD184C002080B500AF5C
:10081000374B93F82031022B00D168E0344B93F82A
:100820002031012B19D0012001F088FE0FF0E6FBEA
:1008300014200FF0B9FB2E4B142283F83C210FF04B
:1008400065FC0FF097FB0246294BC3F85421284B57
:10085000012283F85C210FF069FC254B93F82031CD
:10086000012B29D1224B93F83F31002B24D00FF0DC
:10087000C5FB1F4B93F83E31184601F035FE034689
:100880001A461B4B83F83C21194B93F83C31184610
:100890000FF08AFB0FF03AFC0FF06CFB0246144B92
:1008A000C3F85421124B012283F85C210FF03EFC67
:1008B0000F4B002283F83F2101F0F8FA0C4BB3F8FC
:1008C00003309BB203F00F03002B04D10DF0D4FAD8
:1008D0000DF024FA0BE0064BB3F803309BB203F0A3
:1008E0000F03082B03D10DF0C7FA0DF0E1F980BD1D
:1008F000B44A002080B582B000AF78600A4B93F80C
:100900002031012B00D00CE0022001F017FE0DF089
:10091000B3FA054A7B68C2F83431034A7B68C2F8EF
:1009200038310837BD4680BDB44A0020B0B596B016
:1009300002AF7860AD4B93F82031022B0BD0AB4B5C
:1009400093F820319BB209201D211A4600230DF097
:1009500017F901F047FE032001F0F0FD09200AF02D
:1009600069FD0246A14BC3F82821A04BD3F82831DA
:10097000002B08D109202C21002200230DF000F9C2
:1009800001F030FE2EE1994BD3F8283109221A707C
:10099000964BD3F8283109225A70944BD3F828315A
:1009A000924AD2F8282189325A60904BD3F82831E4
:1009B00058688E4BD3F8283103F108018B4BD3F8DC
:1009C000283103F18504894BD3F8283103F18602DD
:1009D000864BD3F828318733009201938222234635
:1009E0000FF0BEFB814BD3F828311B7A012B05D9C0
:1009F0007E4BD3F828311B7A802B0AD97B4BD3F856
:100A000028311B7A9BB20920372100220DF0B8F85B
:100A1000DBE0764BD3F82831184602210BF0CAFAF6
:100A2000724BD3F8283193F8873083F00103DBB29F
:100A3000002B00D0C9E06D4BD3F8282107F110033B
:100A4000104619460BF012FE3B7C83F00103DBB22B
:100A5000002B00D0B9E0654BD3F82831BA7C83F87D
:100A60004920624BD3F828317A7E83F84A205F4BC5
:100A7000D3F8283138331A4607F13D031D685C6806
:100A80009868D968156054609060D1601B7C1374BD
:100A9000564BD3F8283193F86A30002B2BD0534BA8
:100AA0001B7C83F00103DBB2002B19D0BB7C002B35
:100AB00016D14E4BD3F8282107F1100310461946E2
:100AC00001F0A8FA034683F00103DBB2002B06D045
:100AD000464800214FF4B27215F032F875E00AE092
:100AE000434B1B69414AD2F82821104698470346D8
:100AF000002B00D069E03D4BD3F828217B7C1046C9
:100B000019460BF013FA0023FB813B7C002B21D00C
:100B1000FB7D002B1ED0BB7C002B1BD104200AF0D8
:100B20008FFA024607F110030B33184611460BF0FB
:100B3000DDF80346002B0DD02C4BD3F8282107F10C
:100B40000E031046194600F055F80346002B01D05D
:100B5000012300E00023002B00D136E00FF04EFA15
:100B60000FF008FA0246214BD3F85431D31A1F4A2A
:100B7000D2F8582113441D4AC2F858311B4BD3F800
:100B80002821FB89DBB2104619460BF0CFF9174B31
:100B9000D3F83831184601F073FB012001F0F8FB5F
:100BA000124BDB8809201B211A4600230CF0CAFFD8
:100BB0000E4BD3F82831184601F024FC0B4B0022D1
:100BC000C3F8282101F00EFD0CE0084BD3F82831C2
:100BD00018460AF07DFC054B0022C3F828210120AD
:100BE00001F0ACFC5037BD46B0BD00BFB44A002098
:100BF0007C5D210080B586B000AF7860396000234D
:100C0000FB727B685B68FA7A13441B78FB73FB7A90
:100C10000133DBB2FB72FB7B9AB27B685B68F97ACB
:100C20000B441B789BB21B029BB21344BB81FB7A23
:100C30000133DBB2FB72FB7A9AB23B681A80BB8944
:100C40001BB2002B09DABB89C3F30A03BB82BB8941
:100C500003F4F043DB12FB7508E0BB8903F07F036C
:100C6000BB82BB8903F4FF43DB11FB753B681A8829
:100C7000BB8A13449AB23B681A80FB7D012B40F07B
:100C80002E8100237B747B685B68FA7A13441B789F
:100C9000FB73FB7A0133DBB2FB72FB7B9AB27B689E
:100CA0005B68F97A0B441B789BB21B029BB213441E
:100CB000BB81FB7A0133DBB2FB72BB8A023BBB8296
:100CC000BB891BB2002B09DABB89C3F30A037B8201
:100CD000BB8903F4F043DB12BB7507E0BB89DBB2D1
:100CE0007B82BB8903F4FE431B12BB75BB7D093BB2
:100CF000132B00F2B98001A252F823F03D0E200020
:100D0000690E2000690E2000690E2000690E200087
:100D1000690E2000690E2000690E2000690E200077
:100D2000690E2000690E2000690E2000690E200067
:100D3000690E2000690E2000690E2000690E200057
:100D40004D0D2000930D2000C30D20000AF050F936
:100D5000034683F00103DBB2002B19D07B685B688C
:100D6000FA7A1344184601F0A3F901237B74FB7A45
:100D70000533DBB2FB727B685B68FA7A13441B783D
:100D8000184601F02FF9FB7A0133DBB2FB726DE0FC
:100D90006CE00AF02DF9034683F00103DBB2002B6F
:100DA0000ED001F0CFFC034683F00103DBB2002B31
:100DB00006D007F10B037868194603F071F955E086
:100DC00054E00AF015F9034683F00103DBB2002B6F
:100DD00033D07B685B68FA7A13441B78184601F0BD
:100DE0002FFAFB7A0133DBB2FB72484B93F8503198
:100DF000002B22D07B685B68FA7A13441B789AB286
:100E0000424BA3F86221FB7A0133DBB2FB723F4B0A
:100E1000B3F862319AB27B685B68F97A0B441B784D
:100E20001B029BB213439BB29AB2384BA3F86221C8
:100E3000FB7A0133DBB2FB7218E017E00AF0D8F856
:100E4000034683F00103DBB2002B0CD07B685B68A8
:100E5000FA7A13441B78184601F002FAFB7A013340
:100E6000DBB2FB7202E001E000234AE0BA8A7B8A2F
:100E7000D31ABB82BB8A002B7FF405AF7B7C002B8F
:100E80002CD001F041F9214BDB88184603F02EFEEF
:100E900003F054FE03461A461C4B1A8100233B7490
:100EA0000EE01A4B93F83C310B3B3A7C17490A444D
:100EB00092F84021934200D105E03B7C01333B7422
:100EC0003B7C0F2BEDD903F0ADFE03461A463B7C6D
:100ED0009B1ADAB20D4B83F83D2105E004E03B6834
:100EE00000221A8000230CE03B681B887F2B07D967
:100EF0003B681B88092033211A4601230CF040FE71
:100F0000012318461837BD4680BD00BFB44A0020F3
:100F100080B588B000AF0023BB7700237B7700F05B
:100F2000C5FF0EF0C9FB8D4BDB88002B01D10EF005
:100F3000A5FB0AF05DF8034683F00103DBB2002B4A
:100F40001CD0864BDB68013B844AD360834BDB6853
:100F5000002B13D1002001F01BFA804BDB88092005
:100F60001A211A4600230CF00BFE7D4B9B790133AE
:100F7000DAB27B4B9A7101F035FBEBE0774B93F8DB
:100F80002031002B0CD0754B93F820319AB2734B63
:100F9000DB8809201E210CF0F3FD01F023FBD9E0D2
:100FA0006E4BDA886D4B1B899A421DD103F0B6FD5A
:100FB00003F0C4FD03461A46684B1A8103F008FE8D
:100FC00003463B773B7F013B042B00F2B58001A237
:100FD00052F823F0F70F2000CB102000F70F20006D
:100FE000F1102000531120000CF046FF01F0FAFA36
:100FF0000CF094FEAEE00CF03FFF584B0022C3F81B
:10100000242103F023FE0346002B1DD007F1080323
:10101000184603F0F1FD07F1080318460AF062FBD9
:1010200002464E4BC3F824214C4BD3F82431002BFD
:101030000AD13B7F032B07D101237B770AF0D8FB32
:101040000246464BC3F82421444BD3F82431002BED
:1010500008D13B7F012B02D101F0C4FA7AE00123D1
:10106000BB7732E0042001F069FA3C4BD3F824311D
:1010700009225A707B7F002B16D03B46184600F0A1
:101080006DFF01F0F1FD03461B0A9BB2DBB2013B91
:10109000DBB27B71314BD3F824311B6E1A463B46D1
:1010A000186810609B8893802C4BD3F8243193F8F8
:1010B0004C200132D2B283F84C20284BD3F8343183
:1010C000353318460FF098FA44E0BB7F83F00103F4
:1010D000DBB2002B01D00CF0CFFE0F2001F02EFA76
:1010E0001E4BD3F83431373318460FF085FA31E010
:1010F0000CF0C2FE01F076FA0CF0DAFD174BB3F8F3
:1011000062311A4613465B00134418460EF03AFF4C
:101110000023FB770CE000F0C9FE03F0FFFC03F0B6
:101120000DFD03461A460D4B1A81FB7F0133FB77F9
:10113000FB7F012BEFD90DE00CF09EFE3B7F9AB2B6
:10114000064BDB88092018210CF03AFD01F04AFA21
:1011500000E000BF2037BD4680BD00BFB44A00207C
:10116000184C002080B500AF052001F0E7F9254BB1
:10117000D3F82431244819460AF038FF214B93F85C
:101180007E30002B09D0214BDB681F48984703466F
:10119000002B02D001F026FA32E01B4802210AF0AF
:1011A000EBFE03F03FFD0346184601F09DF90346B0
:1011B0001A46144B83F83C21124B93F83C311846E5
:1011C0000EF0F2FE0F4B9A690E4B1B7F104619462C
:1011D0000EF028FF0EF062FF0EF0CCFE0246094B27
:1011E000C3F85421074B012283F85C21054BD3F847
:1011F0003431773318460FF0FFF9062001F09EF9DD
:1012000080BD00BFB44A0020C84A00207C5D210098
:1012100080B500AF064B93F820319AB2044BDB88BF
:10122000092022210CF0ACFC01F0DCF980BD00BFEC
:10123000B44A002080B500AF072001F07FF9054BCC
:10124000D3F83431983318460FF0D6F90EF036FF44
:1012500080BD00BFB44A002080B500AF064B93F8B4
:1012600020319AB2044BDB88092027210CF088FC3E
:1012700001F0B8F980BD00BFB44A002080B582B04B
:1012800000AF7860082001F059F90FF0E7F9074A3C
:101290007B68C2F83431054BD3F83431A433184697
:1012A0000FF0AAF90837BD4680BD00BFB44A002040
:1012B00080B500AF064B93F820319AB2044BDB881F
:1012C000092026210CF05CFC01F08CF980BD00BFE8
:1012D000B44A002080B584B000AF7860092001F0E6
:1012E0002DF90FF0BBF90EF089FE0EF043FE024619
:1012F0001E4BD3F85431D31A1C4AD2F85821134448
:101300001A4AC2F85831194A7B68C2F83431174B6F
:10131000D3F82431383318460AF004FC0346002B76
:1013200002D00023FB7301E00123FB73FB7B002B46
:1013300007D00E4BD3F834317D3318460FF05CF9EB
:1013400010E00A48012103F0E3FC084BD3F82431F4
:101350001846002101F036F8044B0022C3F824217E
:1013600001F040F91037BD4680BD00BFB44A0020EF
:1013700080B500AF0A2001F0E1F803F053FC03460A
:10138000184601F0B1F803461A46104B83F83C2189
:101390000E4B93F83C3118460EF006FE0EF0B6FEEA
:1013A0000EF0E8FD0246094BC3F85421074B012219
:1013B00083F85C21054BD3F83431873318460FF09E
:1013C0001BF90B2001F0BAF880BD00BFB44A002021
:1013D00080B500AF064B93F820319AB2044BDB88FE
:1013E000092023210CF0CCFB01F0FCF880BD00BFEC
:1013F000B44A002080B500AF0C2001F09FF80EF039
:1014000095FE044BD3F83431A73318460FF0F4F8A7
:1014100080BD00BFB44A002080B500AF1348002152
:1014200003F076FC114BD3F8243193F84B20013AAA
:10143000D2B283F84B200D4BD3F8243193F84B30C4
:10144000002B07D1094BD3F824311846012100F0B5
:10145000B9FF04E0054BD3F824310A225A70034B3C
:101460000022C3F8242101F0BDF880BDB44A002059
:1014700080B582B000AF78600D2001F05FF80FF00A
:10148000EDF8074A7B68C2F83431054BD3F83431A4
:10149000623318460FF0B0F80837BD4680BD00BF74
:1014A000B44A002080B500AF01F09CF880BD00BFB9
:1014B000B0B594B002AF78600E2001F03FF80FF0A5
:1014C000CDF80EF09BFD0EF055FD0246844BD3F88F
:1014D0005431D31A824AD2F858211344804AC2F8B0
:1014E00058317F4A7B68C2F83431092009F0A2FFE5
:1014F00002467B4BC3F83021794BD3F83031002BB7
:1015000008D109202C21002200230CF039FB01F026
:1015100069F8E1E0724BD3F8303109221A70704B50
:10152000D3F8303109225A706D4BD3F830316C4A00
:10153000D2F8302189325A60694BD3F8303158687B
:10154000674BD3F8303103F10801654BD3F83031E4
:1015500003F18504624BD3F8303103F18602604B0E
:10156000D3F83031873300920193822223460EF064
:10157000F7FD5B4BD3F830311B7A012B05D9584B63
:10158000D3F830311B7A802B0AD9554BD3F8303140
:101590001B7A9BB20920372101220CF0F1FA8FE06F
:1015A0004F4BD3F83031184602210AF003FD4C4B63
:1015B000D3F8303193F8873083F00103DBB2002B8E
:1015C00000D07DE0464BD3F8302107F108031046E8
:1015D00019460BF04BF83B7A83F00103DBB2002B8A
:1015E00000D06DE03E4BD3F83031BA7A83F8492011
:1015F0003B4BD3F830317A7C83F84A20384BD3F810
:10160000303138331A4607F135031D685C68986835
:10161000D968156054609060D1601B7C1374304BA6
:10162000D3F8303193F86A30002B0AD02D4B1B6968
:101630002B4AD2F83021104698470346002B00D0A1
:101640003EE0274BD3F830217B7A104619460AF04A
:101650006DFC234BD3F8243107F1080210461946DC
:1016600000F0EAFB034683F00103DBB2002B00D05D
:1016700026E009F0BDFC034683F00103DBB2002B3A
:101680000FD0174BD3F830313833184601F068FCCF
:101690000346002B05D0B7F846301BB2184600F0C1
:1016A00041FE0F48012103F033FB0D4BD3F82431E9
:1016B0001846002100F086FE094B0022C3F82421C1
:1016C000074BD3F83031184609F002FF044B0022D3
:1016D000C3F8302100F086FF4837BD46B0BD00BFDB
:1016E000B44A00207C5D210080B500AF102000F0DE
:1016F00025FF03F097FA0346184600F0F5FE03466F
:101700001A46104B83F83C210E4B93F83C31184697
:101710000EF04AFC0EF0FAFC0EF02CFC0246094BCF
:10172000C3F85421074B012283F85C21054BD3F801
:101730003431583318460EF05FFF112000F0FEFEE2
:1017400080BD00BFB44A002080B500AF064B93F8BF
:1017500020319AB2044BDB88092024210CF010FAC6
:1017600000F040FF80BD00BFB44A002080B500AF4C
:10177000122000F0E3FE0EF0D9FC044BD3F8343114
:10178000AE3318460EF038FF80BD00BFB44A0020CB
:1017900080B500AF00F026FF80BD00BF80B582B0ED
:1017A00000AF7860132000F0C9FE0EF057FF094A21
:1017B0007B68C2F83431074A7B68C2F83831054B80
:1017C000D3F83431A43318460EF016FF0837BD465F
:1017D00080BD00BFB44A002080B500AF064B93F82F
:1017E00020319AB2044BDB88092026210CF0C8F97D
:1017F00000F0F8FE80BD00BFB44A0020B0B596B03E
:1018000002AF78600023FB81142000F097FE0EF0F9
:1018100025FF0EF0F3FB0EF0ADFB0246A94BD3F80B
:101820005431D31AA74AD2F858211344A54AC2F812
:101830005831092009F0FEFD0246A24BC3F82821C9
:10184000A04BD3F82831002B08D109202C210022ED
:1018500000230CF095F900F0C5FE2FE1994BD3F869
:10186000283109221A70974BD3F8283109225A706F
:10187000944BD3F82831934AD2F8282189325A6000
:10188000904BD3F8283158688E4BD3F8283103F1A8
:1018900008018C4BD3F8283103F18504894BD3F828
:1018A000283103F18602874BD3F828318733009221
:1018B0000193822223460EF053FC824BD3F8283149
:1018C0001B7A012B05D97F4BD3F828311B7A802B4B
:1018D0000AD97C4BD3F828311B7A9BB209203721D7
:1018E00002220CF04DF9DDE0764BD3F82831184692
:1018F00002210AF05FFB734BD3F8283193F887304D
:1019000083F00103DBB2002B00D0CBE06D4BD3F8AA
:10191000282107F11003104619460AF0A7FE3B7C68
:1019200083F00103DBB2002B00D0BBE0654BD3F8A2
:101930002831BA7C83F84920624BD3F828317A7E6B
:1019400083F84A205F4BD3F82831FA7D83F865206D
:101950005C4BD3F8283138331A4607F13D031D6834
:101960005C689868D968156054609060D1601B7C91
:101970001374544BD3F8283193F86A30002B0AD0F3
:10198000514B1B694F4AD2F828211046984703460D
:10199000002B00D086E04B4BD3F828217B7C1046EF
:1019A00019460AF0C3FA3B7C002B20D0FB7D002BAC
:1019B0001DD0BB7C002B1AD1042009F041FB02464C
:1019C00007F110030B33184611460AF08FF903464E
:1019D000002B0CD03B4BD3F8282107F10E03104607
:1019E0001946FFF707F90346002B00D000BF354B1F
:1019F000D3F82821FB89DBB2104619460AF096FA83
:101A0000304A7B68C2F8343107F11003184600F001
:101A1000DBF9034683F00103DBB2002B00D041E089
:101A2000284BD3F82831274AD2F8382192B2C2F194
:101A3000830292B292B2A3F868207B7D002B0CD077
:101A4000204B93F85D31002B07D01E4BD3F8343177
:101A5000753318460EF0D0FD30E009F0C9FA0346A0
:101A600083F00103DBB2002B0FD0164BD3F82831E3
:101A70003833184601F074FA0346002B05D0114B99
:101A8000D3F83831184600F0FBFB0E4BD3F8283161
:101A9000184600F0B7FC0B4B0022C3F8282100F0D9
:101AA000A1FD0BE0074BD3F82831184609F010FDD3
:101AB000044B0022C3F8282100F094FD5037BD46A6
:101AC000B0BD00BFB44A00207C5D210090B583B05A
:101AD00002AF152000F032FD092009F0ABFC0246F0
:101AE000664BC3F82C21654BD3F82C31002B12D157
:101AF00009202C21002200230CF042F85F4BD3F880
:101B00002831184600F07EFC5C4B0022C3F82821E7
:101B100000F068FDAEE0594BD3F82C3109221A7061
:101B2000564BD3F82C3109225A70544BD3F8383124
:101B30009BB2C3F183039BB29AB2504BA3F86021CE
:101B40004E4BD3F82C31022283F849204B4BD3F86B
:101B50002C314A4AD2F8282192F84A2083F84A20A8
:101B6000464BD3F82C31454AD2F8282192F86A2006
:101B700083F86A20414BD3F82C31404AD2F828210F
:101B800092F86B2083F86B203C4BD3F82C313B4A06
:101B9000D2F8282192F86C2083F86C20374BD3F8C8
:101BA0002C11364BD3F82C3193F84920334BD3F812
:101BB000283193F84A40314BD3F828313833009319
:101BC00008461146002223460AF028FC2B4BD3F886
:101BD0002C3193F86A30002B12D0294BDB68274A4E
:101BE000D2F82C21104698470346002B08D0234BEF
:101BF000D3F82C31184609F06BFC00F0F3FC39E007
:101C00001E4BD3F82C31184602210AF0B5F903F027
:101C100009F80346184600F067FC03461A46174BBE
:101C200083F83C21154B93F83C3118460EF0BCF973
:101C3000124BD3F82C315A68104BD3F82C311B7A45
:101C4000104619460EF0EEF90EF028FA0EF092F951
:101C500002460A4BC3F85421084B012283F85C2149
:101C6000064BD3F834318B3318460EF0C5FC1620E2
:101C700000F064FC0437BD4690BD00BFB44A0020AC
:101C80007C5D210080B500AF064B93F820319AB2FD
:101C9000044BDB88092025210BF072FF00F0A2FC29
:101CA00080BD00BFB44A002080B500AF172000F00F
:101CB00045FC054BD3F83431AC3318460EF09CFC90
:101CC0000EF0FCF980BD00BFB44A002080B500AF23
:101CD000064B93F820319AB2044BDB880920282167
:101CE0000BF04EFF00F07EFC80BD00BFB44A002028
:101CF00080B582B000AF7860182000F01FFC0EF0B5
:101D0000ADFC074A7B68C2F83431054BD3F8343157
:101D1000623318460EF070FC0837BD4680BD00BF28
:101D2000B44A002080B500AF064B93F820319AB238
:101D3000044BDB88092029210BF022FF00F052FC24
:101D400080BD00BFB44A002080B582B000AF78608B
:101D5000192000F0F3FB0EF081FC1A4A7B68C2F8F0
:101D60003431184BD3F82C31184609F0B1FB154B20
:101D70000022C3F82C2109F03BF9034683F001034C
:101D8000DBB2002B0FD00F4BD3F828313833184675
:101D900001F0E6F80346002B05D00A4BD3F83831A2
:101DA000184600F06DFA074BD3F82831184600F0BA
:101DB00029FB044B0022C3F8282100F013FC08374C
:101DC000BD4680BDB44A002090B583B000AF7860B6
:101DD0007B681B78002B27D07B689B78012B03D076
:101DE0007B689B78002B1FD17B6803F10B040420D8
:101DF00009F026F903462046194609F077FF034605
:101E0000002B11D07B681C33184609F0BDF903463E
:101E1000002B07D17B681C33184609F083FE03466C
:101E2000002B01D0012300E0002303F00103DBB20B
:101E300018460C37BD4690BD90B583B000AF7860B2
:101E400039607B681B78002B27D07B689B78022B3E
:101E500023D17B6803F10B04042009F0F1F8034659
:101E60002046194609F042FF0346002B15D07B6837
:101E70001C33184609F088F90346002B0DD07B6807
:101E800003F12D023B6838331046194609F02EFF46
:101E90000346002B01D0012300E0002303F00103DF
:101EA000DBB218460C37BD4690BD00BF80B582B08E
:101EB00000AF284BB3F803309BB201339AB2254BE5
:101EC000A3F80320234BB3F803309BB2002B14D1AB
:101ED000204BB3F801309BB201339AB21D4BA3F8EB
:101EE00001201C4BB3F801309BB2002B05D1194BDC
:101EF0001B780133DAB2174B1A7002F033FE034637
:101F0000FB80FB88002B06D1124BDB8801339AB291
:101F1000104BDA800BE00F4BDB880133FA8893FB20
:101F2000F2F102FB01F29B1A9AB20A4BDA80094BDA
:101F300093F83D315A1C084B1340002B03DA013B48
:101F400063F00F030133DAB2024B83F83D21083707
:101F5000BD4680BDB44A00200F00008080B483B02D
:101F600000AF7860164BB3F803309BB2DAB27B68EF
:101F70001A707B680133124AB2F8032092B2120A37
:101F800092B2D2B21A707B6802330D4AB2F80120C5
:101F900092B2D2B21A707B680333094AB2F80120B8
:101FA00092B2120A92B2D2B21A707B680433044A17
:101FB00012781A700C37BD465DF8047B704700BF7D
:101FC000B44A002080B483B000AF054BB3F8603151
:101FD000FB80FB8818460C37BD465DF8047B7047D4
:101FE000B44A002080B483B000AF0346FB71084BB5
:101FF000D3F82831FA7983F86420054BD3F82831D7
:10200000012283F867200C37BD465DF8047B7047DA
:10201000B44A002090B585B000AF786039603B6865
:102020005B787868194609F081FF0023FB813B68E3
:102030001B78002B20D03B68DB79002B1CD03B6841
:102040009B78002B18D13B6803F10B04042008F0A7
:10205000F7FF03462046194609F048FE0346002BC9
:102060000AD007F10E0378681946FEF7C3FD034650
:10207000002B01D0012300E00023002B01D100231D
:102080000FE03B685B787868194609F029FF074B39
:102090001B69786898470346002B01D1012300E0B3
:1020A000002318461437BD4690BD00BF7C5D21005B
:1020B00080B483B000AF78607B681B789AB27B688D
:1020C00001331B789BB21B029BB213449AB20D4B97
:1020D000A3F803207B6802331B789AB27B68033332
:1020E0001B789BB21B029BB213449AB2054BA3F818
:1020F00001207B681A79034B1A700C37BD465DF8D6
:10210000047B7047B44A002080B582B000AF02F073
:1021100029FD0346FB801C4B1B783B60FA883B681B
:10212000B3FBF2F102FB01F29B1A3B603B681B041C
:102130003B60154BB3F801309BB21A463B68134421
:102140003B60FA883B68B3FBF2F102FB01F29B1A99
:102150003B603B681B043B600B4BB3F803309BB206
:102160001A463B6813443B60FA883B68B3FBF2F1C4
:1021700002FB01F29B1A3B603B689AB2024BDA8089
:102180000837BD4680BD00BFB44A002080B483B08C
:1021900000AF0346FB71044AFB7982F85D310C37CE
:1021A000BD465DF8047B7047B44A002080B483B01C
:1021B00000AF0346FB71FB790A2B02D9FB791A2B7E
:1021C00003D9FB79002B00D007E0064AFB7982F89F
:1021D0003E31044B012283F83F210C37BD465DF8A8
:1021E000047B7047B44A002080B483B000AF03463C
:1021F000FB71044AFB7982F85E310C37BD465DF80D
:10220000047B7047B44A002080B483B000AF03461B
:10221000FB80044AFB88A2F862310C37BD465DF8AA
:10222000047B7047B44A002080B400AF034BB3F87E
:1022300062311846BD465DF8047B7047B44A002001
:1022400080B483B000AF0346FB71044AFB7982F887
:1022500050310C37BD465DF8047B7047B44A00200E
:1022600080B483B000AF0346FB71044AFB7982F867
:1022700051310C37BD465DF8047B7047B44A0020ED
:1022800080B586B000AF78600DF074FE38610DF057
:1022900083FEF8607B68833BBB60204BB3F8623100
:1022A0007B613A697B689A4204D3FA683B69D31A26
:1022B000042B08D8194BB3F862311A467B691344D2
:1022C0007B61FFF7F3FD7A69BB6813447B61786932
:1022D0000DF058FE114B40F61D12DA600F4B1B7CBF
:1022E000002B0ED0BB6813F1050F02DBBB68052B7A
:1022F00007DDBB689BB209201C211A4600230BF0A6
:102300003FFC074B1B780133DAB2054B1A70B868F3
:1023100000F0C6F81837BD4680BD00BFB44A0020A3
:10232000184C002080B584B000AF78600DF034FE0A
:10233000F860FA687B681344BB60B8680DF022FE51
:10234000114B40F61D12DA600F4B1B7C002B0ED098
:102350007B6813F1050F02DB7B68052B07DD7B68CB
:102360009BB209201C211A4601230BF009FC074BE4
:102370005B780133DAB2054B5A70786800F090F858
:102380001037BD4680BD00BFB44A0020184C002065
:1023900080B582B000AF0346FB71094AFB79137424
:1023A000074B1B7C002B04D00DF0E2FB00F048F83B
:1023B00003E00DF0E3FB02F07BFC0837BD4680BD77
:1023C000B44A002080B582B000AF78600B46FB7045
:1023D0007B68FA7883F837207B684D33074A1068AA
:1023E000186012791A717B680B225A700448022116
:1023F0000BF0C0F90837BD4680BD00BFB44A0020CD
:102400002553200080B582B000AF78607B684D33E3
:10241000094A1068186012791A717B684D331846A2
:1024200002F058FC7B680B225A70044801210BF023
:10243000A1F90837BD4680BDB44A002009542000E8
:1024400080B400AF154B00221A70144B00225A7052
:10245000124B002242F07F029A700022DA700F4B7A
:10246000002262F07E021A714FF0FF325A710B4B5C
:102470000022DA7100221A7200225A7200229A7225
:10248000064B0022DA7200221A7300225A730022CD
:102490009A73BD465DF8047B704700BF184C00205E
:1024A00080B483B000AF78600E4BB3F902309BB2BA
:1024B0001AB27B689A4203DD7B689AB2094B5A8054
:1024C000084BB3F904309BB21AB27B689A4203DA24
:1024D0007B689AB2034B9A800C37BD465DF8047B4B
:1024E000704700BF184C002080B483B000AF034693
:1024F000FB71114B93F83E310A2B08D90E4B93F820
:102500003E311A2B03D80C4B93F83E310DE00A4BA9
:1025100093F83D311A46FB79134403F00F03064A42
:10252000134493F840310B33DBB218460C37BD46E9
:102530005DF8047B704700BFB44A002080B582B0CC
:1025400000AF0346FB71264AFB7982F82031244B09
:1025500093F82031192B40D801A252F823F000BF84
:10256000CF252000C9252000D5252000D525200015
:10257000C9252000D5252000D5252000D5252000FF
:10258000D5252000D5252000D5252000D5252000E3
:10259000D5252000D5252000D5252000CF252000D9
:1025A000D5252000D5252000D5252000D5252000C3
:1025B000D5252000D5252000D5252000D5252000B3
:1025C000D5252000D52520000DF0A8F805E00DF058
:1025D0009BF802E00DF08EF800BF0837BD4680BDC5
:1025E000B44A002080B500AF0DF008FD534B93F8BE
:1025F0005C31002B0DD00DF0BDFC02464F4BD3F8E3
:102600005431D31A4D4AD2F8582113444B4AC2F8D8
:1026100058310EF023F8494B0022C3F83421474BC0
:102620000022C3F83821464BD3F80720434BD3F898
:1026300058311344424AC2F807300DF0ADFC02464F
:102640003F4BD3F80B3013443D4AC2F80B303C4BA0
:10265000D3F80B30002B0DDA394BD3F80B305B0875
:10266000374AC2F80B30364BD3F807305B08344A90
:10267000C2F80730314B0022C3F858212F4B0022FB
:1026800083F85C212D4BD3F82431002B24D02B4828
:10269000002102F03DFB294BD3F8243193F84B2065
:1026A000013AD2B283F84B20244BD3F8243193F86B
:1026B0004B30002B07D1214BD3F824311846012190
:1026C000FFF780FE04E01D4BD3F824310A225A7034
:1026D0001A4B0022C3F82421184BD3F82831002BC1
:1026E00009D0164BD3F828311846FFF78BFE134B51
:1026F0000022C3F82821114BD3F82C31002B09D02C
:102700000E4BD3F82C31184608F0E2FE0B4B00229A
:10271000C3F82C21094BD3F83031002B09D0074BDB
:10272000D3F83031184608F0D3FE044B0022C3F82A
:1027300030210020FFF702FF80BD00BFB44A002017
:10274000184C002080B400AF034B1B7C1846BD46DC
:102750005DF8047B704700BFB44A002080B500AF2D
:10276000094800212C2213F0EBF9074B00221A70C4
:10277000054B0022DA84044B3A221A85024B0022D0
:1027800083F82A2080BD00BF384C002084B0B0B54B
:1027900084B000AF044607F1240080E80E00234611
:1027A000FB805E4B1B8DB3F5FA6F0FD95B4B93F833
:1027B0002A3083F00103DBB2002B07D0B7F90630D3
:1027C000052B40F3A48000F0D5F9A0E0534B93F81B
:1027D0002A3083F00103DBB2002B54D0FFF7B2FFA5
:1027E0000346002B4FD007F1240318464C4909F04B
:1027F0007DFA0346002B46D04A48FDF7EBFD024622
:10280000464B1B8D9A4234D9B7F90630184600F072
:102810008BF8424B00225A81404B0022DA843F4B16
:102820001B8D5B009AB23D4B1A853C4B1B8D1846A5
:1028300002F056FB07F108031846FFF78FFB7B7A7F
:102840001B029AB23B7A9BB213439BB29AB2334BB0
:10285000A3F80F20FB7A1B029AB2BB7A9BB21343F8
:102860009BB29AB22D4BA3F80D203A7B2B4B1A73D7
:102870004DE02A4BDB8C9AB2FB8813449BB29AB290
:10288000264BDA8443E0254B3A221A85234B1B8DD5
:10289000184602F025FB214B00221A701F4B002224
:1028A0005A601E4B00221A811C4B00225A811B4B7E
:1028B0000022DA8407F108031846FFF74FFB7B7A02
:1028C0001B029AB23B7A9BB213439BB29AB2134B50
:1028D000A3F80F20FB7A1B029AB2BB7A9BB2134378
:1028E0009BB29AB20D4BA3F80D203A7B0B4B1A7397
:1028F0000A4B123307F12402156854689068D168B6
:102900001D605C609860D960127C1A74FFE7103714
:10291000BD46BDE8B04004B0704700BF384C002051
:102920004A4C0020444C002080B584B000AF0346E0
:10293000FB803C4B1B78002B02D10123FB7301E091
:102940000023FB733848FDF745FD0246354B5A60BE
:10295000FB7B002B2FD0B7F90630012B12DD314B5A
:1029600001221A702F4B5B689AB22E4B9A842D4B22
:102970009B8C1A46B7F9063092FBF3F39AB2294BB7
:102980009A8448E0B7F90630B3F1FF3F43DA254BAC
:1029900002221A70234B5B689AB2224B9A84214B15
:1029A0009B8C1A46B7F906305B4292FBF3F39AB25E
:1029B0001C4B9A842FE01B4B1B78022B0CD1194B1C
:1029C0005B89BB81174BDB8C9AB2FB8813449BB2AB
:1029D000BA89D31ABB810BE0124B5B89BB81114BC7
:1029E000DB8C9AB2FB8813449AB2BB891344BB8137
:1029F000BB89002B02D100F0BDF80CE0094B5B68ED
:102A00009AB2084B9A84074B9A8CBB89B2FBF3F3BA
:102A10009AB2044B9A84034B9A8C024B1A8110375A
:102A2000BD4680BD384C0020444C002080B582B0AB
:102A300000AFFFF7F9FB0346FB801B4B1B78002B15
:102A400000D12DE0184B1B89002B00D128E0164B3C
:102A50001B89013B9AB2144B1A81134B1B89002B23
:102A60001ED1114B1B78022B09D1FB88013BFB8047
:102A70000D4B5B8901339AB20B4B5A8108E0FB88FE
:102A80000133FB80084B5B8901339AB2064B5A81B4
:102A9000FB8818460DF076FA034B9A8C024B1A818C
:102AA0000837BD4680BD00BF384C002080B584B0DB
:102AB00000AF0346FB80FFF7B7FB03461A46FB88CF
:102AC00001339BB203FB02F37B81294B1B78002B64
:102AD00000D14AE0264B1B89002B00D145E0FB8842
:102AE000002B00D141E0FB88FB8100237B7313E0C6
:102AF0001F4B1B89013B9AB21D4B1A811C4B1B8932
:102B0000002B06D17B7B01337B73194B9A8C184BBE
:102B10001A81FB89013BFB81FB89002BE8D17B7B80
:102B2000002B22D0124B1B78022B0DD17B7B9BB24A
:102B30007A89D31A7B810E4B5A897B7B9BB21344D3
:102B40009AB20B4B5A810CE07B7B9AB27B8913447F
:102B50007B81074B5A897B7B9BB213449AB2044B0F
:102B60005A817B8918460DF00DFA1037BD4680BD9D
:102B7000384C002080B400AF034B012283F82A2098
:102B8000BD465DF8047B7047384C002080B400AF30
:102B900000BFBD465DF8047B704700BF80B483B0C2
:102BA00000AF786000BF0C37BD465DF8047B70470E
:102BB00080B483B000AF7860396000BF0C37BD4689
:102BC0005DF8047B704700BF80B483B000AF7860CD
:102BD000002318460C37BD465DF8047B704700BFE4
:102BE00080B483B000AF7860002318460C37BD4630
:102BF0005DF8047B704700BF80B483B000AF03462C
:102C0000FB71002318460C37BD465DF8047B704706
:102C100080B483B000AF0346FB710B46BB71134613
:102C20007B71002318460C37BD465DF8047B704766
:102C300080B500AF0B4800214FF4AE7212F080FF58
:102C400008F0D6F90346002B05D0064B4FF48072EE
:102C5000A3F8542104E0034B4FF6FF72A3F854216C
:102C600080BD00BF644C002080B400AF034BB3F8BC
:102C700054311846BD465DF8047B7047644C002013
:102C800080B483B000AF0023BB710023FB710FE061
:102C9000FA790C4913461B0113445B000B441B7863
:102CA000002B02D0BB790133BB71FB790133FB717F
:102CB000FB79092BECD9BB7918460C37BD465DF87A
:102CC000047B7047644C0020B0B485B000AF7860DE
:102CD0007B6800221A700023BB7300237B734FF6BE
:102CE000FF737B810B237B720023FB734EE0FA7B27
:102CF000494913461B0113445B000B441B78002B0E
:102D000041D0FA7B444913461B0113445B000B443A
:102D10005B78022B17D1FA7B13461B0113445B002F
:102D20003D4A13441A1D7B68156854689068D16841
:102D30001D605C609860D960127C1A747B68022206
:102D40001A700123BB73FA7B334913461B011344EA
:102D50005B000B441033B3F805309BB27A899A427A
:102D60000ED9FA7B2C4913461B0113445B000B441C
:102D700010335A799B791B0213437B81FB7B7B7257
:102D80007B7B01337B73FB7B0133FB73FB7B092B69
:102D9000ADD9BB7B83F00103DBB2002B35D07B7B4D
:102DA000002B32D07A7A1C4913461B0113445B0076
:102DB0000B4402225A707A7A174913461B011344B6
:102DC0005B000B4401229A707A7A134913461B0167
:102DD00013445B000B440022DA707A7A13461B011D
:102DE00013445B000C4A13441A1D7B681568546831
:102DF0009068D1681D605C609860D960127C1A741C
:102E00007B6802221A700123BB73BB7B1846143700
:102E1000BD46B0BC704700BF644C002080B586B092
:102E200000AF0346FB8000233B610023FB600023CF
:102E3000FB7531E0FA7D214913461B0113445B0009
:102E40000B441B78002B24D0FA7D13461B0113443E
:102E50005B001833194A134404331846FDF7BAFAD5
:102E600003467B817A89FB889A4212D9FA7D1349FD
:102E700013461B0113445B000B445B78022B08D103
:102E8000FA7D13461B0113445B000C4A13440433C0
:102E90003B61FB7D0133FB75FB7D092BCAD93B6987
:102EA000002B01D03B6905E0FB68002B01D0FB68DB
:102EB00000E0002318461837BD4680BD644C002052
:102EC00080B58CB000AF7860002387F82E307B6827
:102ED0001B78032B0DD107F1080207F11C0378685A
:102EE00011461A4608F05EFD00BF002387F82F3018
:102EF0002AE07B681B789BB20D2031211A46002303
:102F00000AF05EFE97F82E3024E007F11C0297F8D5
:102F10002F301046194600F02BFE0346002B0ED032
:102F200097F82F200D4913461B0113445B000B44F7
:102F30009B78002B03D0012387F82E3008E097F808
:102F40002F30013387F82F3097F82F30092BDCD939
:102F500097F82E3018463037BD4680BD644C0020AF
:102F600080B584B000AF78600FF0A8FD0023BB737C
:102F70000023FB7317E0FB7B7868194600F0F8FD2F
:102F80000346002B0CD0FA7B0C4913461B0113445B
:102F90005B000B445B78022B02D10123BB7305E07D
:102FA000FB7B0133FB73FB7B092BE4D90FF07AFD2C
:102FB000BB7B18461037BD4680BD00BF644C002067
:102FC00090B585B000AF0346FB71FA7911491346FD
:102FD0001B0113445B000B441B78002B12D0FA79C1
:102FE0000C4913461B0113445B000B441033B3F828
:102FF00005309CB2FFF738FE03469C4202D2012303
:10300000FB7301E00023FB73FB7B18461437BD46BE
:1030100090BD00BF644C002090B585B000AF034662
:10302000FB71FA79114913461B0113445B000B44F1
:103030001B78002B12D0FA790C4913461B0113445C
:103040005B000B441033B3F805309CB2FFF70CFE65
:1030500003469C4202D30123FB7301E00023FB7370
:10306000FB7B18461437BD4690BD00BF644C002062
:1030700090B589B002AFF8607A601A460B46FB72D1
:103080001346BB720123BB750023FB75EBE0FB7D90
:10309000F868194600F06CFD0346002B00F0E08054
:1030A0000023BB75FA7D7B4913461B0113445B006B
:1030B0000B4418331B780133D8B2764913461B01F1
:1030C00013445B000B44183302461A70FA7D7149B1
:1030D00013461B0113445B000B441033FA7ADA7178
:1030E000FA7D13461B0113445B001833694A1344ED
:1030F00004337A681168196012791A71BB7A002B4F
:103100000AD0FA7D634913461B0113445B000B444C
:10311000203397F828205A70FA7D5E4913461B0128
:1031200013445B000B449B7883F00103DBB2002B5C
:1031300045D0FA7D574913461B0113445B000B44ED
:103140001033DB795BB213F14F0F2EDBFA7D51495F
:1031500013461B0113445B000B44DB780133D8B2E8
:103160004C4913461B0113445B000B440246DA70C2
:10317000FA7D484913461B0113445B000B44DB787E
:10318000022B6CD9FA7D434913461B0113445B00A3
:103190000B440022DA70FA7D3E4913461B011344AA
:1031A0005B000B4401229A7059E0FA7D39491346BD
:1031B0001B0113445B000B440022DA7057E0FA7DD8
:1031C000344913461B0113445B000B449B78002BCE
:1031D00045D0FA7D2F4913461B0113445B000B4475
:1031E0001033DB795BB213F15A0F2EDAFA7D2949DD
:1031F00013461B0113445B000B44DB780133D8B248
:10320000244913461B0113445B000B440246DA7049
:10321000FA7D204913461B0113445B000B44DB7805
:10322000022B1CD9FA7D1B4913461B0113445B007A
:103230000B440022DA70FA7D164913461B01134431
:103240005B000B4400229A7011E0FA7D114913468D
:103250001B0113445B000B440022DA7007E006E018
:10326000FB7D0133FB75FB7D092B7FF610AFBB7D2A
:10327000002B0BD097F90B20BC7A97F828300093DD
:10328000F86811467A68234600F0C0FA1C37BD463C
:1032900090BD00BF644C002080B586B000AFF860E0
:1032A0007B600B46FB721346BB72F86808F03AFC71
:1032B0000346002B00D09CE00023FB7595E0FB7DCE
:1032C000F868194600F054FC0346002B00F08A8091
:1032D000FA7D494913461B0113445B000B44183324
:1032E0005B781A46FB7AC3F1FF039A423DDDFA7D13
:1032F000414913461B0113445B000B441833DB7830
:103300000133D8B23C4913461B0113445B000B4404
:1033100018330246DA70FA7DF97D37480B461B01F7
:103320000B445B00034418335B785B08D8B2324926
:1033300013461B0113445B000B44183302465A70BA
:10334000FA7DF97D2C480B461B010B445B000344BE
:1033500018339B785B08D8B2274913461B011344E6
:103360005B000B44183302469A70FA7DF97D2248BF
:103370000B461B010B445B00034418335978FB7A5E
:103380000B44D8B21C4913461B0113445B000B4489
:10339000183302465A70BB7A002B22D0FA7D1649A8
:1033A00013461B0113445B000B4418339B78013315
:1033B000D8B2114913461B0113445B000B44183368
:1033C00002469A70FA7D13461B0113445B001833C2
:1033D000094A134404337A681168196012791A7122
:1033E00007E006E0FB7D0133FB75FB7D092B7FF6D3
:1033F00066AF1837BD4680BD644C002090B585B0DF
:1034000000AF78607B680D225A707B685B684F4A1A
:10341000C2F858317B685B689B78BB734B4BD3F821
:103420005831BA7B92B2120291B27A685268033272
:10343000127892B20A4492B25A807B6838331846A6
:1034400000F0E6FA0346002B7AD00023FB7374E009
:103450007B6803F13802FB7B1046194600F088FBBD
:103460000346002B66D0394BD3F858315B8899B2AC
:10347000FA7B364813461B0113445B0003441033A8
:10348000B3F805309BB2994243D9304BD3F8583149
:103490005B889BB21846FA7B2C4913461B011344E8
:1034A0005B000B441033B3F805309BB2C31AB3F57D
:1034B000F05F2EDDFA7BF97B24480B461B010B44A1
:1034C0005B0003441033B3F805309BB203F5F053AF
:1034D00098B21E4913461B0113445B000B44103382
:1034E0000246A3F80520194BD3F858315B889CB2EB
:1034F000FA7B164913461B0113445B000B4410333F
:10350000B3F805309BB20D20102122460AF038FB9B
:1035100016E0FA7B0D4BD3F858315B8898B20B4913
:1035200013461B0113445B000B4410330246A3F8FF
:10353000052005E0FB7B0133FB73FB7B092B87D95F
:1035400000F042F81437BD4690BD00BF644C002027
:1035500080B582B000AF78600B46FB701346BB703D
:10356000FB78022B12D17B68591CBA7813461B01D9
:1035700013445B000B4A13445A1D0B4611685268F2
:1035800019605A607B6802221A7008E0FB789BB2CF
:103590000D2031211A4601230AF012FB00BF083723
:1035A000BD4680BD644C002080B483B000AF0346AC
:1035B000FB80044AFB88A2F854310C37BD465DF805
:1035C000047B7047644C002080B584B000AF07F0E6
:1035D0000FFD0346002B05D04D4B4FF48072A3F82E
:1035E000542191E04A4B4FF6FF72A3F85421002377
:1035F000BB720023FB720023FB7364E0FA7B444937
:1036000013461B0113445B000B441B78002B57D05F
:10361000FA7B3F4913461B0113445B000B44002215
:103620005A70FA7B3A4913461B0113445B000B4462
:1036300018339B78002B03D14FF4F053BB811BE070
:10364000FA7B334913461B0113445B000B441833C8
:103650005B789B027B607B685902FA7B2C4813469F
:103660001B0113445B00034418339B78B1FBF3F355
:103670007B607B689B0ABB81FA7B254913461B0153
:1036800013445B000B441033B3F805309BB21A4669
:10369000BB8913443B601E4BB3F854311A463B6858
:1036A0009A420DD93B684FF6FE72934208D83B68A8
:1036B0009AB2174BA3F854210123BB72FB7BFB7218
:1036C000FB7B0133FB73FB7B092B97D9BB7A002B68
:1036D0001AD0FA7A0E4913461B0113445B000B44BF
:1036E00002225A70FA7A0A4913461B0113445B00FE
:1036F0000B4401229A70FA7A054913461B011344C0
:103700005B000B440022DA701037BD4680BD00BF5D
:10371000644C002080B582B000AF0023FB7123E031
:10372000FA79144913461B0113445B000B441B78C0
:10373000002B16D0FA7913461B0113445B00183393
:103740000C4A134404331846FCF744FE0346BB807E
:10375000BB8840F61D12934203D9FB79184600F04E
:1037600075F9FB790133FB71FB79092BD8D908373F
:10377000BD4680BD644C0020F0B58BB000AF214B3E
:1037800093F856315A1C204B83FB02139910D31720
:10379000C91A0B469B000B445B00D11ACAB2194BE5
:1037A00083F85621174B93F856313B71154B93F81C
:1037B00056311946134A0B461B010B445B00134458
:1037C000781D03F1200402461946D1F800E04E6846
:1037D0008D68C968C2F800E056609560D16010330A
:1037E0001030A342EFD102461B8813803B1D0920F5
:1037F000194623220AF072F8012318462C37BD46D9
:10380000F0BD00BF644C002067666666B0B586B048
:1038100000AFF8607A601A460B46FB721346BB7223
:10382000FB681B78022B09D0FB681B789BB20D202C
:1038300031211A4602230AF0C3F9E4E0F86800F0E7
:10384000E7F8034683F00103DBB2002B00F0DB80D6
:103850000023FB75C9E0FA7D6C4913461B01134434
:103860005B000B441B7883F00103DBB2002B00F0FC
:10387000B980FA7D654913461B0113445B000B4474
:1038800001221A70FA7D614913461B0113445B0043
:103890000B4400225A70FA7D5C4913461B01134405
:1038A0005B000B4401229A70FA7D584913461B01B4
:1038B00013445B000B440022DA70FA7D13461B01AF
:1038C00013445B00514A13440433FA681568546882
:1038D0009068D1681D605C609860D960127C1A7431
:1038E000FA7D4A4913461B0113445B000B44103315
:1038F0004FF0FF325A714FF0FF329A71FA7D43490F
:1039000013461B0113445B000B441033FA7ADA713F
:10391000FA7D3E4913461B0113445B000B441833E8
:1039200001221A70FA7D394913461B0113445B00CA
:103930000B44183300225A70FA7D344913461B0198
:1039400013445B000B44183300229A70FA7D13462F
:103950001B0113445B0018332C4A134404337A6868
:103960001168196012791A71BB7A002B0AD0FA7D9E
:10397000264913461B0113445B000B44203397F880
:1039800028205A7000237B750023BB750EE0BA7D9A
:103990001E4913461B0113445B000B445B78022B4A
:1039A00001D101237B75BB7D0133BB75BB7D092B29
:1039B000EDD97B7D83F00103DBB2002B11D007F042
:1039C00017FB034683F00103DBB2002B09D0FA7D1D
:1039D0000E4913461B0113445B000B4402225A702C
:1039E00007E006E0FB7D0133FB75FB7D092B7FF6CD
:1039F00032AFFB7D0A2B06D10D2014210A220023B1
:103A00000AF0BEF800BF1837BD46B0BD644C0020B8
:103A100080B584B000AF78600023FB730023FB7394
:103A20000CE0FB7B7868194600F0A2F80346002BF7
:103A300001D0012306E0FB7B0133FB73FB7B092BE9
:103A4000EFD9002318461037BD4680BD80B483B03F
:103A500000AF0346FB71FA79444913461B01134436
:103A60005B000B4400221A70FA79404913461B018F
:103A700013445B000B4400225A70FA793B49134609
:103A80001B0113445B000B4400229A70FA793749FA
:103A900013461B0113445B000B440022DA70FA79D1
:103AA000324913461B0113445B000B4400221A7178
:103AB000FA792E4913461B0113445B000B44103363
:103AC0004FF0FF325A714FF0FF329A71FA7927495D
:103AD00013461B0113445B000B4410330022DA71C0
:103AE000FA79224913461B0113445B000B44183337
:103AF00000221A70FA791D4913461B0113445B001A
:103B00000B44183300225A70FA79184913461B01E6
:103B100013445B000B44183300229A70FA7913495E
:103B200013461B0113445B000B4418330022DA7167
:103B300000221A72FA790D4913461B0113445B00E7
:103B40000B44183300225A7100229A71FA790749FE
:103B500013461B0113445B000B44183300221A71F7
:103B60000C37BD465DF8047B704700BF644C0020F5
:103B700080B582B000AF78600B46FB707B681B7825
:103B8000022B1FD1FA78164913461B0113445B0020
:103B90000B441B78002B10D0FA7813461B011344FA
:103BA0005B000F4A134404337868194608F09EF806
:103BB0000346002B01D0012300E0002303F00103A2
:103BC000DBB209E07B681B789BB20D2031211A46DD
:103BD000032309F0F5FF002318460837BD4680BDD2
:103BE000644C002080B584B000AF78600B46FB7059
:103BF0007868022108F074F9FB789BB2BB81BA891E
:103C0000094B13439BB2BB817B685B68BA89D2B214
:103C10001A707B685B680133BA89120A92B2D2B219
:103C20001A701037BD4680BD0088FFFF80B584B094
:103C300000AF78600B46FB707868022108F050F9FD
:103C4000FB789BB2BB81BA89094B13439BB2BB8102
:103C50007B685B68BA89D2B21A707B685B68013393
:103C6000BA89120A92B2D2B21A701037BD4680BD1C
:103C70000090FFFF80B584B000AF78600023FB7335
:103C80007868062108F02CF97B685A687B681A6608
:103C9000FB7B0633FB737868022108F021F90623C9
:103CA000BB81BB8943F4D0539BB2BB817B685B680B
:103CB000BA89D2B21A707B685B680133BA89120A7A
:103CC00092B2D2B21A70FB7B0233FB73FB7B1846B5
:103CD0001037BD4680BD00BF90B587B000AF78609B
:103CE0000023FB750023FB7401233B820F23FB742D
:103CF0003B8ABB8227E07868052108F0F1F87B68F1
:103D00005B68BA8AD2B2013AD2B21A707B685B6839
:103D10000133BA8A013A1212D2B21A707B685B6818
:103D2000023300221A707B685B68033300221A702A
:103D30007B685B680433FA7C1A70FB7D0533FB7586
:103D4000BB8A013BBB82BB8A002BD4D100F00AFFA7
:103D50000346FB817868052108F0C2F87B685C683F
:103D600000F024FF034623707B685B685C1C00F056
:103D70000BFF034623707B685B680233FA89D2B27B
:103D80001A707B685B680333FA89120A92B2D2B266
:103D90001A707B685B68043301221A70FB7D05335F
:103DA000FB757868022108F09BF8FB7D9BB2BB8114
:103DB000BB8943F4D8539BB2BB817B685B68BA89EB
:103DC000D2B21A707B685B680133BA89120A92B268
:103DD000D2B21A70FB7D0233FB75FB7D18461C378F
:103DE000BD4690BD80B584B000AF78600023FB7302
:103DF000FEF71AFA0346BB81BB89B3F5A47F0BD14A
:103E00007868012108F06CF87B685B6800221A7002
:103E1000FB7B0133FB731BE07868022108F060F83C
:103E20007B685B68BA89D2B21A707B685B680133C1
:103E3000BA89120A92B2D2B21A707868012108F0D7
:103E40004FF87B685B6801221A70FB7B0333FB73BE
:103E50007868022108F044F8FB7B9BB23B813B89E8
:103E600043F4E0539BB23B817B685B683A89D2B2F2
:103E70001A707B685B6801333A89120A92B2D2B237
:103E80001A70FB7B0233FB73FB7B18461037BD4671
:103E900080BD00BF80B584B000AF78600023FB73A5
:103EA0007868012108F01CF87B685B6800221A70B2
:103EB000FB7B0133FB737868022108F011F8FB7B70
:103EC0009BB2BB81BA890C4B13439BB2BB817B680D
:103ED0005B68BA89D2B21A707B685B680133BA89B1
:103EE000120A92B2D2B21A70FB7B0233FB73FB7BD5
:103EF00018461037BD4680BD00C8FFFF80B584B0AE
:103F000000AF78600B46FB707868022107F0E8FF8D
:103F1000FB789BB2BB81BB89BB817B685B68BA893C
:103F2000D2B21A707B685B680133BA89120A92B206
:103F3000D2B21A70022318461037BD4680BD00BFAA
:103F400080B584B000AF78600B46FB700023FB7334
:103F50007868012107F0C4FF7B685B6800221A7053
:103F6000FB7B0133FB737B68FA7883F85F2078680A
:103F7000012107F0B5FF0123BB73FB781B01DAB207
:103F8000BB7B1343DBB2BB737B685B68BA7B1A7085
:103F9000FB7B0133FB73FB7B18461037BD4680BDAE
:103FA00080B584B000AF78600023FB73786801218E
:103FB00007F096FF7B685B6800221A70FB7B013379
:103FC000FB73FB7B18461037BD4680BD80B584B0BF
:103FD00000AF786039600023BB7300237B7300233C
:103FE000FB734CE0FA7B13469B0013443A6813447E
:103FF0001B79002B40D07868042107F071FF7B68A3
:104000005968FA7B13469B0013443A6813441B8893
:104010009BB2DBB20B707B685B68591CFA7B134662
:104020009B0013443A6813441B889BB21B0A9BB243
:10403000DBB20B707B685B68991CFA7B13469B00B4
:1040400013443A6813445B889BB2DBB20B707B6805
:104050005B68D91CFA7B13469B0013443A681344EF
:104060005B889BB21B0A9BB2DBB20B70BB7B043339
:10407000BB737B7B01337B73FB7B0133FB73FB7B6C
:10408000022BAFD97B687A7B83F85C207B685A6807
:104090007B689A65BB7B18461037BD4680BD00BF64
:1040A00090B58FB002AF786039603B681B7887F8B5
:1040B0002E307B685A6897F82E3013441B7887F8A7
:1040C0002D3097F82E30013387F82E3097F82D30A9
:1040D000184600F0C3FA002387F82C3097F82C20FC
:1040E00097F82D309A4280F0CA807B685A6897F81A
:1040F0002E3013441B7887F8243097F82E30013384
:1041000087F82E3097F82430184600F095FA7B682F
:104110005A6897F82E3013441B789BB2A7F82530C5
:1041200097F82E30013387F82E30B7F825309BB240
:1041300099B27B685A6897F82E3013441B781B029B
:104140009BB20A4613439BB29BB2A7F8253097F85F
:104150002E30013387F82E3000F004FD03467B85B6
:10416000B7F825309BB2184600F04CFA7B685A68C5
:1041700097F82E3013441B7887F8273097F82E30A5
:10418000013387F82E307B8D002B72D1002387F806
:104190002F3068E07B685A6897F82E3013441B78FC
:1041A0009BB2BB8397F82E30013387F82E30BB8B40
:1041B00099B27B685A6897F82E3013441B781B021B
:1041C0009BB20A4613439BB29BB2BB8397F82E3037
:1041D000013387F82E307B685A6897F82E301344E5
:1041E0001B789BB2FB8397F82E30013387F82E3073
:1041F000FB8B99B27B685A6897F82E3013441B7872
:104200001B029BB20A4613439BB29BB2FB8397F8F7
:104210002E30013387F82E307B685A6897F82E309D
:1042200013441B7887F8203097F82E30013387F835
:104230002E3007F1080318460021112211F080FCEE
:1042400006233B72BA8BFB8BDCB207F108030093A9
:10425000104603210122234600F062FA97F82F301E
:10426000013387F82F3097F8273097F82F209A429C
:1042700090D397F82C30013387F82C3000BF3B687F
:1042800097F82E201A703437BD4690BD80B487B0A1
:1042900000AFF8607B600B46FB721346BB720023D5
:1042A000FB75FB7ABB75BB7A7B7563E0FA7D1346C1
:1042B0009B0013447A681344FA685168BA7D0A4433
:1042C000127892B21A80FA7D13469B0013447A68E2
:1042D000D118FA7D13469B0013447A6813441B8857
:1042E0009BB298B2FB685A68BB7D013313441B78BC
:1042F0001B029BB2024613439BB29BB20B80FA7D1A
:1043000013469B0013447A681344FA685168BA7DD7
:1043100002320A44127892B25A80FA7D13469B0008
:1043200013447A68D118FA7D13469B0013447A68C7
:1043300013445B889BB298B2FB685A68BB7D033319
:1043400013441B781B029BB2024613439BB29BB2E1
:104350004B80BB7D0433BB757B7D043B7B75FA7D55
:1043600013469B0013447A68134401221A71FB7DA3
:104370000133FB757B7D002B98D11C37BD465DF862
:10438000047B704780B588B002AF254800214FF408
:10439000867211F0D5FB0023FB820CE0FA8A1346EB
:1043A000DB0013449B001E4A1344184600F026FD10
:1043B000FB8A0133FB82FB8A062BEFD9184B0122C3
:1043C00083F80621164B0722A3F802210023BB82A3
:1043D00006F00EFE0346002B01D000F023F8BB8A46
:1043E0000133BB823B4618460021112211F0A8FB85
:1043F000BB8AFB820BE0FA8A3B46009310460421FD
:104400000022002300F08CF9FB8A0133FB82FA8A38
:10441000BB8A03339A42EEDB1837BD4680BD00BF2E
:10442000C04D002080B588B002AF0023BB82164B80
:10443000B3F80031002B02D10B2000F0E3F801208B
:1044400000F0FAF8012000F009F93B461846002177
:10445000112211F075FB06233B70BB8AFB820BE037
:10446000FA8A3B460093104603210122002300F004
:1044700057F9FB8A0133FB82FA8ABB8A01339A42DD
:10448000EEDB1837BD4680BDC04D0020B0B588B00A
:1044900000AF4F4B93F8083101334D4AB2F8022177
:1044A00093FBF2F102FB01F29B1ADAB2484B83F85C
:1044B0000821474B93F808313B70454B93F808317E
:1044C0001946434A0B46DB000B449B0013441B88F0
:1044D000A7F801303E4B93F8083119463C4A0B4689
:1044E000DB000B449B0013449B78FB70384B93F824
:1044F00008311946364A0B46DB000B449B00134437
:10450000DB783B71324B93F808311946304A0B4641
:10451000DB000B449B0013441B797B712C4B93F8FD
:1045200008311A461346DB0013449B00284A134403
:104530005A1DBB1D156854689068D1681D605C6089
:104540009860D960127C1A74214B93F8083119468F
:104550001F4A0B46DB000B449B00134410339B792E
:10456000FB751B4B93F808311946194A0B46DB00C3
:104570000B449B0013441033DB793B76144B93F8C8
:1045800008311946124A0B46DB000B449B001344CA
:1045900018331B787B760E4B93F808311A46134676
:1045A000DB0013449B001833094A13445A1C07F1DB
:1045B0001A031168196012791A713B4606201946D0
:1045C0001F2209F08BF9012318462037BD46B0BDE4
:1045D000C04D002080B582B000AF094B93F8063182
:1045E0003B71074B93F807317B713B1D0720194640
:1045F000022209F073F9012318460837BD4680BD31
:10460000C04D002080B582B000AF0346FB800EF0A5
:1046100055FA084AFB88A2F80031FB88072B03D81B
:10462000044AFB88A2F802310EF03CFA0837BD4676
:1046300080BD00BFC04D002080B582B000AF0346F2
:10464000FB710EF03BFA044AFB7982F804310EF05C
:1046500029FA0837BD4680BDC04D002080B582B024
:1046600000AF0346FB710EF029FA044AFB7982F889
:1046700005310EF017FA0837BD4680BDC04D002049
:1046800080B586B000AF0346B9607A60FB811D4BF0
:104690007B611DE07B690533B868194607F026FB8E
:1046A0000346002B11D07B691B88FA899A420CD1F2
:1046B0007B699A787B681A727B69DA787B685A72B0
:1046C0007B691A797B681A7318E07B6924337B61F4
:1046D0000C4BB3F802315A1E1346DB0013449B0007
:1046E000084A1A447B699A42D4D27B6800221A7223
:1046F0007B6800225A727B6800221A731837BD4605
:1047000080BD00BFC04D002080B400AF034BB3F8A4
:1047100002311846BD465DF8047B7047C04D00204D
:1047200090B587B000AF0446084611461A462346A6
:10473000FB8003467B710B463B711346FB700EF00A
:10474000BDF9444B7B6102E07B6924337B617B696B
:104750009B78002B0CD03F4BB3F802315A1E134606
:10476000DB0013449B003B4A1A447B699A42EBD21C
:10477000384BB3F802315A1E1346DB0013449B003A
:10478000344A1A447B699A4209D20EF08BF90E2002
:1047900017210022002309F013FA012356E07B6958
:1047A000FA881A807B697A799A707B693A79DA702B
:1047B0007B69FA781A717B6905331846B96A112248
:1047C00011F048F9234BD3F8FC30002B07D17B695B
:1047D0007A691A621F4A7B69C2F8FC3033E01D4BCC
:1047E000D3F8FC303B613B691B6AFB603B691A886C
:1047F0007B691B889A4205D27B691A88FB681B88F3
:104800009A421AD33B691A887B691B889A4205D25F
:10481000FB681A883B691B889A420ED97B691A8803
:10482000FB681B889A4205D2FB681A883B691B8883
:104830009A4202D9FB683B61D5E73B697A691A6203
:104840007B69FA681A620EF02DF9002318461C37AE
:10485000BD4690BDC04D002080B584B000AF03467A
:104860003960FB800EF02AF9364BFB6011E0FB68E3
:104870001B88FA889A4209D1FB68053338681946C3
:1048800007F034FA0346002B00D00FE0FB68243316
:10489000FB602C4BB3F802315A1E1346DB00134465
:1048A0009B00284A1A44FB689A42E0D2254BB3F891
:1048B00002315A1E1346DB0013449B00214A1A445E
:1048C000FB689A4209D20EF0EDF80E202E2100224C
:1048D000002309F075F9012330E0FB681A6AFB68D0
:1048E0009A4207D1FB6800221A62164B0022C3F8D5
:1048F000FC201DE0134BD3F8FC30BB60BB681A6A88
:10490000FB689A420BD100BFFB681A6ABB681A6247
:104910000C4BD3F8FC20FB689A4209D103E0BB683A
:104920001B6ABB60EAE7FB681B6A064AC2F8FC30F8
:10493000F86800F063FA0EF0B5F800231846103757
:10494000BD4680BDC04D002080B584B000AF034699
:10495000FB800EF0B3F80E4BD3F8FC30FB60FB6825
:104960001B88FA889A4203D10EF09CF800230BE0D2
:10497000FB681B6AFB60064BD3F8FC20FB689A427D
:10498000EDD10EF08FF8012318461037BD4680BDDB
:10499000C04D002080B582B000AF0EF08FF8174BED
:1049A000D3F8FC307B607B68DB7D322B0CD97B68D5
:1049B0001B7E1A46642303FB02F37A68D27D93FBC5
:1049C000F2F34F2B00DC08E07B681B6A7B600B4B2B
:1049D000D3F8FC207B689A42E5D1084BD3F8FC2041
:1049E0007B689A4203D10EF05DF8002302E00EF0DE
:1049F00059F87B6818460837BD4680BDC04D002079
:104A000080B584B000AF03463A60FB710B46BB71C2
:104A10000023FB810EF052F8FB79012B03D00EF03E
:104A200041F8002320E0124BD3F8FC30BB60BB6898
:104A300005331846396807F059F90346002B07D0AB
:104A4000BB689B78BA799A4202D1FB890133FB811A
:104A5000BB681B6ABB60064BD3F8FC20BB689A425C
:104A6000E5D10EF01FF8FB8918461037BD4680BD12
:104A7000C04D002080B584B000AF03463960FB71A3
:104A80000023FB731DE0FA7B1346DB0013449B00FD
:104A90000F4A134405331846396807F027F90346CF
:104AA000002B0BD0FA7B0A491346DB0013449B0012
:104AB0000B441B8818463968FFF7CEFEFB7B013399
:104AC000FB73FB7B062BDED91037BD4680BD00BFD4
:104AD000C04D002080B400AF034BD3F8FC30184623
:104AE000BD465DF8047B7047C04D002080B582B0A4
:104AF00000AF0346FB800DF0E1FF01E000F00EF88F
:104B0000054BD3F8FC301B88FA889A42F6D10DF099
:104B1000C9FF0837BD4680BDC04D002080B500AF3D
:104B20000DF0CCFF044BD3F8FC301B6A024AC2F8EC
:104B3000FC300DF0B7FF80BDC04D002080B582B0C5
:104B400000AF0DF0BBFF064BD3F8FC301B6A1B888F
:104B5000FB800DF0A7FFFB8818460837BD4680BDD7
:104B6000C04D002080B582B000AF0DF0A7FF054B0F
:104B7000B3F80031FB800DF095FFFB88184608372D
:104B8000BD4680BDC04D002080B582B000AF0DF0A5
:104B900095FF054B93F80431FB710DF083FFFB7912
:104BA00018460837BD4680BDC04D002080B582B094
:104BB00000AF0DF083FF054B93F80531FB710DF04D
:104BC00071FFFB7918460837BD4680BDC04D0020F7
:104BD00080B582B000AF0DF071FF064BD3F8FC300A
:104BE0009B78FB710DF05EFFFB7918460837BD46D8
:104BF00080BD00BFC04D002080B582B000AF78609E
:104C00000DF05CFF064BD3F8FC300533786819468D
:104C1000112210F01FFF0DF045FF0837BD4680BD83
:104C2000C04D002080B582B000AF0DF047FF064BAD
:104C3000D3F8FC301B79FB710DF034FFFB7918467B
:104C40000837BD4680BD00BFC04D002080B582B092
:104C500000AF0DF033FF154BD3F8FC30DB7883F059
:104C60000103DBB2002B02D00123FB7116E00F4BD6
:104C700093F80731002B07D00C4B93F80731013B19
:104C8000DAB20A4B83F80721084B93F80731002B5F
:104C900002D10123FB7101E00023FB710DF002FF43
:104CA000FB7918460837BD4680BD00BFC04D0020C7
:104CB00080B500AF0DF002FF054B012283F80621FD
:104CC000034B002283F807210DF0ECFE80BD00BFEE
:104CD000C04D002080B582B000AF78600DF0EEFED0
:104CE0000A4BD3F8FC309A7D0132D2B29A75074B49
:104CF000D3F8FC30193318467968052210F0AAFE63
:104D00000DF0D0FE0837BD4680BD00BFC04D00206D
:104D100080B582B000AF78600B46FB700DF0CEFE20
:104D2000354BD3F8FC30DB7DFF2B13D1324BD3F85E
:104D3000FC30314AD2F8FC20D27D5208D2B2DA756A
:104D40002D4BD3F8FC302C4AD2F8FC20127E5208AE
:104D5000D2B21A76284BD3F8FC30DA7D0132D2B2C7
:104D6000DA75FB78002B06D0234BD3F8FC301A7E83
:104D70000132D2B21A76204BD3F8FC3019331846E0
:104D80007968052210F066FE1B4BD3F8FC30DB7807
:104D9000002B2CD0FB78002B08D0174B012283F876
:104DA0000621154B002283F8072120E0124B93F8CF
:104DB0000631032B07D8104B93F806310133DAB2D2
:104DC0000D4B83F8062106F0B3FD0346DAB20A4B19
:104DD00093F80631194601238B40DBB2013BDBB26D
:104DE000DBB21340DBB2DAB2034B83F807210DF0DC
:104DF00059FE0837BD4680BDC04D002080B582B049
:104E000000AF78607B6800221A807B6800229A706D
:104E10007B680022DA707B6800221A717B680022AE
:104E20005A717B68063318460021082210F088FE6C
:104E30007B6800229A757B680022DA757B68002205
:104E40001A767B6800229A837B6800225A837B68EB
:104E500000225A767B6800221A620837BD4680BD60
:104E600080B500AF06F064FD0346DBB29BB203F5EC
:104E70005A739AB2174B1A80164B00229A70154B30
:104E80000022DA70134B00221A71124B00225A7161
:104E9000104B4FF4FA621A810E4B1E225A810D4BB1
:104EA0000122DA730B4B1B881846002100220A4BA3
:104EB00009F0C2FB03461A46064B9A714FF47A601A
:104EC00001210022054B09F0B7FB03461A46014BAE
:104ED000DA7180BDCC4E0020DD552000F955200050
:104EE00080B483B000AF0346FB80FB88B3F5FA6F54
:104EF00004D9064B4FF4FA621A8102E0034AFB8898
:104F000013810C37BD465DF8047B7047CC4E002002
:104F100080B483B000AF0346FB71FB79042B03D848
:104F2000064B05225A8103E0FB799AB2034B5A8162
:104F30000C37BD465DF8047B704700BFCC4E0020A7
:104F400080B483B000AF0346FB71044AFB799373CE
:104F50000C37BD465DF8047B704700BFCC4E002087
:104F600080B58AB000AF03463960FB711346BB7150
:104F700007F10C03184600210F2210F0E1FD684BE9
:104F80001B7B002B00D0C8E03B68002B00D1C4E0A5
:104F9000634B9B7B002B00D1BFE0FB79012B13D12E
:104FA00007F11E0107F10C02BB79084611461A46AB
:104FB00001F0E2F8034683F00103DBB2002B00D0DE
:104FC000ABE0BB7F87F82730FB79022B13D107F1C9
:104FD0001E0107F10C02BB79084611463A6801F040
:104FE0001FF9034683F00103DBB2002B00D094E0ED
:104FF000BB7F87F827300F2006F01CFA38623B6A27
:10500000002B06D10F202C210022002308F0B8FD30
:1050100083E0434B01221A733B6A0F221A703B6AEA
:105020000F225A703B6A383318463968112210F043
:1050300011FD0023FB7707F10C03386A1946FEF7D0
:10504000C5FF03461A46FB7F1344FB77386A0121EC
:1050500006F046FF3B6A5B6897F827201A70FB7FD3
:105060000133FB77386A012106F03AFF3B6A5B683F
:10507000BA791A70FB7F0133FB77FB79386A1946DE
:10508000FEF75EFF03461A46FB7F1344FB77386A40
:10509000FEF786FF03461A46FB7F1344FB77FB7F30
:1050A000386A1946FEF7C2FD3B6A012283F8662082
:1050B000386A00F009F9FB79013B042B20D801A2E2
:1050C00052F823F0D9502000E1502000E950200090
:1050D000F1502000F9502000114B02221A730FE00A
:1050E0000F4B03221A730BE00D4B04221A7307E0D7
:1050F0000B4B05221A7303E0094B06221A7300BFFB
:10510000074BDB79184600214FF47A6209F09AFBCD
:10511000034BDB79184609F031FC2837BD4680BDCA
:10512000CC4E002080B58AB000AF0346B9607A60EB
:10513000FB7307F11003184600210F2210F000FD49
:105140004C4B1B7B002B00D091E0BB68002B00D1A7
:105150008DE0484B9B7B002B00D188E0012387F832
:10516000273097F8273087F8263007F110031846C4
:1051700079680F2210F06EFC0F2006F05BF93862A0
:105180003B6A002B06D10F202C210022002308F0BF
:10519000F7FC6CE0374B01221A733B6A0F221A703E
:1051A0003B6A0F225A703B6A38331846B96811229D
:1051B00010F050FC0023FB7707F11003386A194602
:1051C000FEF704FF03461A46FB7F1344FB77386A59
:1051D000012106F085FE3B6A5B6897F826201A706D
:1051E000FB7F0133FB77386A012106F079FE3B6AC9
:1051F0005B6801221A70FB7F0133FB77FB7B386A07
:105200001946FEF79DFE03461A46FB7F1344FB77C3
:10521000386AFEF7C5FE03461A46FB7F1344FB7748
:10522000FB7F386A1946FEF701FD3B6A012283F8CD
:105230006620386A00F048F8FB7B012B02D0022B75
:1052400004D007E00B4B02221A7303E0094B032240
:105250001A7300BF074BDB79184600214FF47A62BE
:1052600009F0F0FA034BDB79184609F087FB283781
:10527000BD4680BDCC4E002080B588B000AF03464F
:105280003960FB80FA8807F11003104639681A4626
:10529000FFF7F6F93B7E002B10D0FB883B813B7F6C
:1052A0009BB27B813B7E3B73064B01229A7307F1D5
:1052B0000803022039681A46FFF734FF2037BD463D
:1052C00080BD00BFCC4E002080B582B000AF7860BA
:1052D0007B680C225A707B68012283F849207B6826
:1052E000002283F86A207B68002283F86B207B68A9
:1052F000002283F86C207B6893F8663083F001030A
:10530000DBB2002B05D07868002100F027F90346B6
:1053100004E07868012100F021F9034618460837B7
:10532000BD4680BD80B582B000AF06F06FF97860F1
:105330007B68002B06D10C2015210022002308F0E9
:105340003FFC5CE07B680C225A707B6893F8373036
:10535000002B0DD17B6803F138017B6893F84C205A
:105360007B684D33084611460122FDF795FF0CE09E
:105370007B6803F138017B6893F84C207B684D33E0
:10538000084611460022FDF787FF7B681B780C2B2F
:1053900002D00F2B23D02AE07B6893F84930002BF2
:1053A00003D1184B0022DA7002E0164B00229A70EB
:1053B000786806F08DF806F0BBFA0346DBB29BB2C4
:1053C00003F55A739AB20F4B1A800E4B9A790D4B14
:1053D0001B88104600211A4609F034FA0FE07B685A
:1053E00093F837307868194600F042FA07E07B6896
:1053F00093F837307868194601F032FA00BF083761
:10540000BD4680BDCC4E002090B585B002AF06F001
:1054100033F978607B68002B06D10C20162100221E
:10542000002308F0CDFB5EE07B680C225A7000235D
:105430007B807B6893F84930012B13D17B6893F80C
:105440006630002B0ED0BB1C7868194600F048FB74
:10545000034683F00103DBB2002B03D0786806F02B
:1054600037F840E07B88DBB27868194606F05EFDCD
:105470007B6803F138007B6893F885107B6803F143
:105480004D027B6893F867407B6893F8643049B2BB
:1054900000932346FDF7ECFD7B68002283F867202C
:1054A0007B6893F84930002B0FDB012B01DD032BC8
:1054B0000BD17B681B7A002B03D0786801F0ECF9E4
:1054C00011E0786806F004F80DE0786806F000F85E
:1054D0007B6893F849309BB20C2030211A46002398
:1054E00008F04EFB00BF0C37BD4690BD80B582B0C2
:1054F00000AF0023FB80FDF7B7FB0346FB80BB1D1D
:1055000002201946022208F0E9F90123184608375B
:10551000BD4680BD80B582B000AF074B1B89FB80C4
:10552000BB1D0A201946022208F0D8F901231846AB
:105530000837BD4680BD00BFCC4E002080B483B08C
:1055400000AF0346FB71044AFB79D3730C37BD46A9
:105550005DF8047B704700BFCC4E002090B585B04D
:1055600002AF78600B46FB707B683833184606F054
:10557000D9FA0346002B04D07B68012283F84B2024
:1055800003E07B68042283F84B20134B1B795A1CE1
:10559000D1B2114A11717A6882F84A307B680022D0
:1055A00083F84C207B681F2283F884207B6893F863
:1055B00049107B6893F84A407B683833FA78009347
:1055C0007868234606F02AFF7B680A225A70002377
:1055D00018460C37BD4690BDCC4E002080B582B039
:1055E00000AF0346FB710348032108F0C3F80837F6
:1055F000BD4680BD1556200080B582B000AF034681
:10560000FB7103480A2108F0B5F80837BD4680BD94
:105610005158200080B582B000AF1B4B5B7901333D
:10562000194A528993FBF2F102FB01F29B1ADAB29A
:10563000154B5A71144B5B79012B06D0022B07D006
:10564000002B1BD100F022F81BE0FEF763F818E0F6
:10565000FFF7A0F978607B68002B0FD07B689B7800
:10566000002B0BD07B689B78032B07D07B681A88B4
:105670007B68053310461946FFF7FEFD00F090F8F1
:1056800000BF0837BD4680BDCC4E002080B582B03B
:1056900000AF0023FB71FDF755F8034683F00103CB
:1056A000DBB2002B07D1FDF7DFFA03461A464FF6AF
:1056B000FF739A4206D10C2005F050FF374B0022B1
:1056C000DA7067E0354BDB78002B00D062E00C200D
:1056D00005F0B0FE38603B68002B06D10C202C2171
:1056E0000022002308F04CFA54E03B680C221A70A8
:1056F0003B680C225A703868FEF7EEFA03461A46E9
:10570000FB791344FB713868FEF7C4FB03461A4665
:10571000FB791344FB713868FEF764FB03461A46B5
:10572000FB791344FB713868FEF7A4FA03461A4666
:10573000FB791344FB71FB7938681946FEF752FA7E
:105740003B68002283F849203B68012283F8382017
:105750003B68FF2283F839203B68FF2283F83A2018
:105760003B68012283F866203B68002283F86A20A8
:105770003B68002283F86B203B68002283F86C2092
:105780003B6893F8663038681946FFF7E7FE034B2D
:105790000122DA700837BD4680BD00BFCC4E002024
:1057A00080B582B000AFFCF7CDFF034683F0010364
:1057B000DBB2002B06D00C2005F0D0FE234B0022DC
:1057C0009A7040E0214B9B78002B00D03BE01F4BB0
:1057D0001B891846FDF722FB78607B68002B00D1FF
:1057E00031E00C2005F026FE38603B68002B06D126
:1057F0000C202C210122002308F0C2F923E03B6891
:105800000C221A703B680C225A703B68012283F804
:1058100049203B68383318467968112210F01AF98C
:105820003B68002283F86A203B68002283F86B20E3
:105830003B68002283F86C2038680021FFF78EFE59
:10584000024B01229A700837BD4680BDCC4E002025
:1058500080B500AF054B00221A73044B00229A73E7
:10586000024BDB79184609F073F880BDCC4E00205E
:1058700080B588B000AF78600B46FB7007F1080375
:10588000184600210F2210F05BF97B689B6DBB610D
:105890007B6893F85C30FB757B680F225A70FB784D
:1058A000012B06D18D4B00221A73786805F010FE8B
:1058B00010E18A4B1B7B023B0B2B00F2048101A2FF
:1058C00052F823F0F5582000FD5820000D59200013
:1058D0000559200015592000C75A2000C75A20003A
:1058E000C75A2000C75A2000C75A2000C75A2000B4
:1058F0001D592000794B07221A73E8E0774B0822E4
:105900001A73E4E0754B0A221A73E0E0734B092224
:105910001A73DCE0714B0B221A73D8E07B6893F8A2
:105920005F30062B40F0AD80FB78002B40F0A98063
:105930007B6893F85E30012B05D07B6893F85E306E
:10594000022B40F09080FB7D002B00F08B80002329
:10595000FB7764E0FA7FBB691B7899B213469B0022
:10596000134407F120021344183B0A461A80FA7FB9
:10597000F97F0B469B000B4407F120010B44183BB9
:105980001B889BB299B2BB6901331B781B029BB287
:105990000B439BB299B213469B00134407F12002BC
:1059A0001344183B0A461A80FA7FBB6902331B78FE
:1059B00099B213469B00134407F120021344183B8D
:1059C0000A465A80FA7FF97F0B469B000B4407F189
:1059D00020010B44183B5B889BB299B2BB6903332F
:1059E0001B781B029BB20B439BB299B213469B00E0
:1059F000134407F120021344183B0A465A80BB693E
:105A00000433BB61FA7F13469B00134407F1200265
:105A10001344183B01221A71FB7F0133FB77FA7F95
:105A2000FB7D9A4296D37B6893F85E30012B0CD1B4
:105A30007B6893F85D007B6803F13802274B1B7B82
:105A400007F1080100F040FC0CE07B6893F85D1062
:105A50007B68383307F10802084611461A4600F001
:105A6000ADFC0EE00DE07B6893F85E30052B08D1AD
:105A70007B6893F85D207B68383310461946FEF743
:105A8000F9FF164B00221A73144B00229A73134B22
:105A9000DB79184608F05CFF104B9B7B012B11D182
:105AA0007B683833022019460122FFF759FA7B68D8
:105AB0003833012019460122FFF752FA074B002222
:105AC0009A7304E003E0054B00221A7300BF786864
:105AD00005F0FEFC2037BD4680BD00BFCC4E002047
